{
  "_format": "hh-sol-artifact-1",
  "contractName": "UInft",
  "sourceName": "contracts/Greeter.sol",
  "abi": [
    {
      "inputs": [],
      "stateMutability": "nonpayable",
      "type": "constructor"
    },
    {
      "anonymous": false,
      "inputs": [
        {
          "indexed": true,
          "internalType": "address",
          "name": "owner",
          "type": "address"
        },
        {
          "indexed": true,
          "internalType": "address",
          "name": "approved",
          "type": "address"
        },
        {
          "indexed": true,
          "internalType": "uint256",
          "name": "tokenId",
          "type": "uint256"
        }
      ],
      "name": "Approval",
      "type": "event"
    },
    {
      "anonymous": false,
      "inputs": [
        {
          "indexed": true,
          "internalType": "address",
          "name": "owner",
          "type": "address"
        },
        {
          "indexed": true,
          "internalType": "address",
          "name": "operator",
          "type": "address"
        },
        {
          "indexed": false,
          "internalType": "bool",
          "name": "approved",
          "type": "bool"
        }
      ],
      "name": "ApprovalForAll",
      "type": "event"
    },
    {
      "anonymous": false,
      "inputs": [
        {
          "indexed": true,
          "internalType": "address",
          "name": "from",
          "type": "address"
        },
        {
          "indexed": true,
          "internalType": "address",
          "name": "to",
          "type": "address"
        },
        {
          "indexed": true,
          "internalType": "uint256",
          "name": "tokenId",
          "type": "uint256"
        }
      ],
      "name": "Transfer",
      "type": "event"
    },
    {
      "inputs": [
        {
          "internalType": "address",
          "name": "to",
          "type": "address"
        },
        {
          "internalType": "uint256",
          "name": "tokenId",
          "type": "uint256"
        }
      ],
      "name": "approve",
      "outputs": [],
      "stateMutability": "nonpayable",
      "type": "function"
    },
    {
      "inputs": [
        {
          "internalType": "address",
          "name": "owner",
          "type": "address"
        }
      ],
      "name": "balanceOf",
      "outputs": [
        {
          "internalType": "uint256",
          "name": "",
          "type": "uint256"
        }
      ],
      "stateMutability": "view",
      "type": "function"
    },
    {
      "inputs": [
        {
          "internalType": "uint256",
          "name": "tokenId",
          "type": "uint256"
        }
      ],
      "name": "getApproved",
      "outputs": [
        {
          "internalType": "address",
          "name": "",
          "type": "address"
        }
      ],
      "stateMutability": "view",
      "type": "function"
    },
    {
      "inputs": [
        {
          "internalType": "address",
          "name": "owner",
          "type": "address"
        },
        {
          "internalType": "address",
          "name": "operator",
          "type": "address"
        }
      ],
      "name": "isApprovedForAll",
      "outputs": [
        {
          "internalType": "bool",
          "name": "",
          "type": "bool"
        }
      ],
      "stateMutability": "view",
      "type": "function"
    },
    {
      "inputs": [],
      "name": "mint",
      "outputs": [],
      "stateMutability": "nonpayable",
      "type": "function"
    },
    {
      "inputs": [],
      "name": "name",
      "outputs": [
        {
          "internalType": "string",
          "name": "",
          "type": "string"
        }
      ],
      "stateMutability": "view",
      "type": "function"
    },
    {
      "inputs": [
        {
          "internalType": "uint256",
          "name": "tokenId",
          "type": "uint256"
        }
      ],
      "name": "ownerOf",
      "outputs": [
        {
          "internalType": "address",
          "name": "",
          "type": "address"
        }
      ],
      "stateMutability": "view",
      "type": "function"
    },
    {
      "inputs": [
        {
          "internalType": "address",
          "name": "from",
          "type": "address"
        },
        {
          "internalType": "address",
          "name": "to",
          "type": "address"
        },
        {
          "internalType": "uint256",
          "name": "tokenId",
          "type": "uint256"
        }
      ],
      "name": "safeTransferFrom",
      "outputs": [],
      "stateMutability": "nonpayable",
      "type": "function"
    },
    {
      "inputs": [
        {
          "internalType": "address",
          "name": "from",
          "type": "address"
        },
        {
          "internalType": "address",
          "name": "to",
          "type": "address"
        },
        {
          "internalType": "uint256",
          "name": "tokenId",
          "type": "uint256"
        },
        {
          "internalType": "bytes",
          "name": "_data",
          "type": "bytes"
        }
      ],
      "name": "safeTransferFrom",
      "outputs": [],
      "stateMutability": "nonpayable",
      "type": "function"
    },
    {
      "inputs": [
        {
          "internalType": "address",
          "name": "operator",
          "type": "address"
        },
        {
          "internalType": "bool",
          "name": "approved",
          "type": "bool"
        }
      ],
      "name": "setApprovalForAll",
      "outputs": [],
      "stateMutability": "nonpayable",
      "type": "function"
    },
    {
      "inputs": [
        {
          "internalType": "bytes4",
          "name": "interfaceId",
          "type": "bytes4"
        }
      ],
      "name": "supportsInterface",
      "outputs": [
        {
          "internalType": "bool",
          "name": "",
          "type": "bool"
        }
      ],
      "stateMutability": "view",
      "type": "function"
    },
    {
      "inputs": [],
      "name": "symbol",
      "outputs": [
        {
          "internalType": "string",
          "name": "",
          "type": "string"
        }
      ],
      "stateMutability": "view",
      "type": "function"
    },
    {
      "inputs": [
        {
          "internalType": "uint256",
          "name": "tokenId",
          "type": "uint256"
        }
      ],
      "name": "tokenURI",
      "outputs": [
        {
          "internalType": "string",
          "name": "",
          "type": "string"
        }
      ],
      "stateMutability": "view",
      "type": "function"
    },
    {
      "inputs": [
        {
          "internalType": "address",
          "name": "from",
          "type": "address"
        },
        {
          "internalType": "address",
          "name": "to",
          "type": "address"
        },
        {
          "internalType": "uint256",
          "name": "tokenId",
          "type": "uint256"
        }
      ],
      "name": "transferFrom",
      "outputs": [],
      "stateMutability": "nonpayable",
      "type": "function"
    }
  ],
  "bytecode": "0x608060405260006007553480156200001657600080fd5b506040518060400160405280600281526020017f55490000000000000000000000000000000000000000000000000000000000008152506040518060400160405280600581526020017f55496e667400000000000000000000000000000000000000000000000000000081525081600090805190602001906200009b929190620000bd565b508060019080519060200190620000b4929190620000bd565b505050620001d2565b828054620000cb906200016d565b90600052602060002090601f016020900481019282620000ef57600085556200013b565b82601f106200010a57805160ff19168380011785556200013b565b828001600101855582156200013b579182015b828111156200013a5782518255916020019190600101906200011d565b5b5090506200014a91906200014e565b5090565b5b80821115620001695760008160009055506001016200014f565b5090565b600060028204905060018216806200018657607f821691505b602082108114156200019d576200019c620001a3565b5b50919050565b7f4e487b7100000000000000000000000000000000000000000000000000000000600052602260045260246000fd5b612aa880620001e26000396000f3fe608060405234801561001057600080fd5b50600436106100ea5760003560e01c80636352211e1161008c578063a22cb46511610066578063a22cb46514610249578063b88d4fde14610265578063c87b56dd14610281578063e985e9c5146102b1576100ea565b80636352211e146101cb57806370a08231146101fb57806395d89b411461022b576100ea565b8063095ea7b3116100c8578063095ea7b31461016d5780631249c58b1461018957806323b872dd1461019357806342842e0e146101af576100ea565b806301ffc9a7146100ef57806306fdde031461011f578063081812fc1461013d575b600080fd5b61010960048036038101906101049190611b51565b6102e1565b6040516101169190611f57565b60405180910390f35b6101276103c3565b6040516101349190611f72565b60405180910390f35b61015760048036038101906101529190611ba3565b610455565b6040516101649190611ef0565b60405180910390f35b61018760048036038101906101829190611b15565b6104da565b005b6101916105f2565b005b6101ad60048036038101906101a89190611a0f565b61063a565b005b6101c960048036038101906101c49190611a0f565b61069a565b005b6101e560048036038101906101e09190611ba3565b6106ba565b6040516101f29190611ef0565b60405180910390f35b610215600480360381019061021091906119aa565b61076c565b6040516102229190612194565b60405180910390f35b610233610824565b6040516102409190611f72565b60405180910390f35b610263600480360381019061025e9190611ad9565b6108b6565b005b61027f600480360381019061027a9190611a5e565b6108cc565b005b61029b60048036038101906102969190611ba3565b61092e565b6040516102a89190611f72565b60405180910390f35b6102cb60048036038101906102c691906119d3565b610a80565b6040516102d89190611f57565b60405180910390f35b60007f80ac58cd000000000000000000000000000000000000000000000000000000007bffffffffffffffffffffffffffffffffffffffffffffffffffffffff1916827bffffffffffffffffffffffffffffffffffffffffffffffffffffffff191614806103ac57507f5b5e139f000000000000000000000000000000000000000000000000000000007bffffffffffffffffffffffffffffffffffffffffffffffffffffffff1916827bffffffffffffffffffffffffffffffffffffffffffffffffffffffff1916145b806103bc57506103bb82610b14565b5b9050919050565b6060600080546103d2906123b9565b80601f01602080910402602001604051908101604052809291908181526020018280546103fe906123b9565b801561044b5780601f106104205761010080835404028352916020019161044b565b820191906000526020600020905b81548152906001019060200180831161042e57829003601f168201915b5050505050905090565b600061046082610b7e565b61049f576040517f08c379a000000000000000000000000000000000000000000000000000000000815260040161049690612114565b60405180910390fd5b6004600083815260200190815260200160002060009054906101000a900473ffffffffffffffffffffffffffffffffffffffff169050919050565b60006104e5826106ba565b90508073ffffffffffffffffffffffffffffffffffffffff168373ffffffffffffffffffffffffffffffffffffffff161415610556576040517f08c379a000000000000000000000000000000000000000000000000000000000815260040161054d90612154565b60405180910390fd5b8073ffffffffffffffffffffffffffffffffffffffff16610575610bea565b73ffffffffffffffffffffffffffffffffffffffff1614806105a457506105a38161059e610bea565b610a80565b5b6105e3576040517f08c379a00000000000000000000000000000000000000000000000000000000081526004016105da90612054565b60405180910390fd5b6105ed8383610bf2565b505050565b6007600081546106019061241c565b9190508190555061061433600754610cab565b610638600754604051806060016040528060358152602001612a3e60359139610e85565b565b61064b610645610bea565b82610ef9565b61068a576040517f08c379a000000000000000000000000000000000000000000000000000000000815260040161068190612174565b60405180910390fd5b610695838383610fd7565b505050565b6106b5838383604051806020016040528060008152506108cc565b505050565b6000806002600084815260200190815260200160002060009054906101000a900473ffffffffffffffffffffffffffffffffffffffff169050600073ffffffffffffffffffffffffffffffffffffffff168173ffffffffffffffffffffffffffffffffffffffff161415610763576040517f08c379a000000000000000000000000000000000000000000000000000000000815260040161075a90612094565b60405180910390fd5b80915050919050565b60008073ffffffffffffffffffffffffffffffffffffffff168273ffffffffffffffffffffffffffffffffffffffff1614156107dd576040517f08c379a00000000000000000000000000000000000000000000000000000000081526004016107d490612074565b60405180910390fd5b600360008373ffffffffffffffffffffffffffffffffffffffff1673ffffffffffffffffffffffffffffffffffffffff168152602001908152602001600020549050919050565b606060018054610833906123b9565b80601f016020809104026020016040519081016040528092919081815260200182805461085f906123b9565b80156108ac5780601f10610881576101008083540402835291602001916108ac565b820191906000526020600020905b81548152906001019060200180831161088f57829003601f168201915b5050505050905090565b6108c86108c1610bea565b838361123e565b5050565b6108dd6108d7610bea565b83610ef9565b61091c576040517f08c379a000000000000000000000000000000000000000000000000000000000815260040161091390612174565b60405180910390fd5b610928848484846113ab565b50505050565b606061093982610b7e565b610978576040517f08c379a000000000000000000000000000000000000000000000000000000000815260040161096f906120f4565b60405180910390fd5b6000600660008481526020019081526020016000208054610998906123b9565b80601f01602080910402602001604051908101604052809291908181526020018280546109c4906123b9565b8015610a115780601f106109e657610100808354040283529160200191610a11565b820191906000526020600020905b8154815290600101906020018083116109f457829003601f168201915b505050505090506000610a22611407565b9050600081511415610a38578192505050610a7b565b600082511115610a6d578082604051602001610a55929190611ecc565b60405160208183030381529060405292505050610a7b565b610a768461141e565b925050505b919050565b6000600560008473ffffffffffffffffffffffffffffffffffffffff1673ffffffffffffffffffffffffffffffffffffffff16815260200190815260200160002060008373ffffffffffffffffffffffffffffffffffffffff1673ffffffffffffffffffffffffffffffffffffffff16815260200190815260200160002060009054906101000a900460ff16905092915050565b60007f01ffc9a7000000000000000000000000000000000000000000000000000000007bffffffffffffffffffffffffffffffffffffffffffffffffffffffff1916827bffffffffffffffffffffffffffffffffffffffffffffffffffffffff1916149050919050565b60008073ffffffffffffffffffffffffffffffffffffffff166002600084815260200190815260200160002060009054906101000a900473ffffffffffffffffffffffffffffffffffffffff1673ffffffffffffffffffffffffffffffffffffffff1614159050919050565b600033905090565b816004600083815260200190815260200160002060006101000a81548173ffffffffffffffffffffffffffffffffffffffff021916908373ffffffffffffffffffffffffffffffffffffffff160217905550808273ffffffffffffffffffffffffffffffffffffffff16610c65836106ba565b73ffffffffffffffffffffffffffffffffffffffff167f8c5be1e5ebec7d5bd14f71427d1e84f3dd0314c0f7b2291e5b200ac8c7c3b92560405160405180910390a45050565b600073ffffffffffffffffffffffffffffffffffffffff168273ffffffffffffffffffffffffffffffffffffffff161415610d1b576040517f08c379a0000000000000000000000000000000000000000000000000000000008152600401610d12906120d4565b60405180910390fd5b610d2481610b7e565b15610d64576040517f08c379a0000000000000000000000000000000000000000000000000000000008152600401610d5b90611fd4565b60405180910390fd5b610d70600083836114c5565b6001600360008473ffffffffffffffffffffffffffffffffffffffff1673ffffffffffffffffffffffffffffffffffffffff1681526020019081526020016000206000828254610dc09190612248565b92505081905550816002600083815260200190815260200160002060006101000a81548173ffffffffffffffffffffffffffffffffffffffff021916908373ffffffffffffffffffffffffffffffffffffffff160217905550808273ffffffffffffffffffffffffffffffffffffffff16600073ffffffffffffffffffffffffffffffffffffffff167fddf252ad1be2c89b69c2b068fc378daa952ba7f163c4a11628f55a4df523b3ef60405160405180910390a4610e81600083836114ca565b5050565b610e8e82610b7e565b610ecd576040517f08c379a0000000000000000000000000000000000000000000000000000000008152600401610ec4906120b4565b60405180910390fd5b80600660008481526020019081526020016000209080519060200190610ef4929190611836565b505050565b6000610f0482610b7e565b610f43576040517f08c379a0000000000000000000000000000000000000000000000000000000008152600401610f3a90612034565b60405180910390fd5b6000610f4e836106ba565b90508073ffffffffffffffffffffffffffffffffffffffff168473ffffffffffffffffffffffffffffffffffffffff161480610f905750610f8f8185610a80565b5b80610fce57508373ffffffffffffffffffffffffffffffffffffffff16610fb684610455565b73ffffffffffffffffffffffffffffffffffffffff16145b91505092915050565b8273ffffffffffffffffffffffffffffffffffffffff16610ff7826106ba565b73ffffffffffffffffffffffffffffffffffffffff161461104d576040517f08c379a000000000000000000000000000000000000000000000000000000000815260040161104490611fb4565b60405180910390fd5b600073ffffffffffffffffffffffffffffffffffffffff168273ffffffffffffffffffffffffffffffffffffffff1614156110bd576040517f08c379a00000000000000000000000000000000000000000000000000000000081526004016110b490611ff4565b60405180910390fd5b6110c88383836114c5565b6110d3600082610bf2565b6001600360008573ffffffffffffffffffffffffffffffffffffffff1673ffffffffffffffffffffffffffffffffffffffff168152602001908152602001600020600082825461112391906122cf565b925050819055506001600360008473ffffffffffffffffffffffffffffffffffffffff1673ffffffffffffffffffffffffffffffffffffffff168152602001908152602001600020600082825461117a9190612248565b92505081905550816002600083815260200190815260200160002060006101000a81548173ffffffffffffffffffffffffffffffffffffffff021916908373ffffffffffffffffffffffffffffffffffffffff160217905550808273ffffffffffffffffffffffffffffffffffffffff168473ffffffffffffffffffffffffffffffffffffffff167fddf252ad1be2c89b69c2b068fc378daa952ba7f163c4a11628f55a4df523b3ef60405160405180910390a46112398383836114ca565b505050565b8173ffffffffffffffffffffffffffffffffffffffff168373ffffffffffffffffffffffffffffffffffffffff1614156112ad576040517f08c379a00000000000000000000000000000000000000000000000000000000081526004016112a490612014565b60405180910390fd5b80600560008573ffffffffffffffffffffffffffffffffffffffff1673ffffffffffffffffffffffffffffffffffffffff16815260200190815260200160002060008473ffffffffffffffffffffffffffffffffffffffff1673ffffffffffffffffffffffffffffffffffffffff16815260200190815260200160002060006101000a81548160ff0219169083151502179055508173ffffffffffffffffffffffffffffffffffffffff168373ffffffffffffffffffffffffffffffffffffffff167f17307eab39ab6107e8899845ad3d59bd9653f200f220920489ca2b5937696c318360405161139e9190611f57565b60405180910390a3505050565b6113b6848484610fd7565b6113c2848484846114cf565b611401576040517f08c379a00000000000000000000000000000000000000000000000000000000081526004016113f890611f94565b60405180910390fd5b50505050565b606060405180602001604052806000815250905090565b606061142982610b7e565b611468576040517f08c379a000000000000000000000000000000000000000000000000000000000815260040161145f90612134565b60405180910390fd5b6000611472611407565b9050600081511161149257604051806020016040528060008152506114bd565b8061149c84611666565b6040516020016114ad929190611ecc565b6040516020818303038152906040525b915050919050565b505050565b505050565b60006114f08473ffffffffffffffffffffffffffffffffffffffff16611813565b15611659578373ffffffffffffffffffffffffffffffffffffffff1663150b7a02611519610bea565b8786866040518563ffffffff1660e01b815260040161153b9493929190611f0b565b602060405180830381600087803b15801561155557600080fd5b505af192505050801561158657506040513d601f19601f820116820180604052508101906115839190611b7a565b60015b611609573d80600081146115b6576040519150601f19603f3d011682016040523d82523d6000602084013e6115bb565b606091505b50600081511415611601576040517f08c379a00000000000000000000000000000000000000000000000000000000081526004016115f890611f94565b60405180910390fd5b805181602001fd5b63150b7a0260e01b7bffffffffffffffffffffffffffffffffffffffffffffffffffffffff1916817bffffffffffffffffffffffffffffffffffffffffffffffffffffffff19161491505061165e565b600190505b949350505050565b606060008214156116ae576040518060400160405280600181526020017f3000000000000000000000000000000000000000000000000000000000000000815250905061180e565b600082905060005b600082146116e05780806116c99061241c565b915050600a826116d9919061229e565b91506116b6565b60008167ffffffffffffffff811115611722577f4e487b7100000000000000000000000000000000000000000000000000000000600052604160045260246000fd5b6040519080825280601f01601f1916602001820160405280156117545781602001600182028036833780820191505090505b5090505b600085146118075760018261176d91906122cf565b9150600a8561177c9190612465565b60306117889190612248565b60f81b8183815181106117c4577f4e487b7100000000000000000000000000000000000000000000000000000000600052603260045260246000fd5b60200101907effffffffffffffffffffffffffffffffffffffffffffffffffffffffffffff1916908160001a905350600a85611800919061229e565b9450611758565b8093505050505b919050565b6000808273ffffffffffffffffffffffffffffffffffffffff163b119050919050565b828054611842906123b9565b90600052602060002090601f01602090048101928261186457600085556118ab565b82601f1061187d57805160ff19168380011785556118ab565b828001600101855582156118ab579182015b828111156118aa57825182559160200191906001019061188f565b5b5090506118b891906118bc565b5090565b5b808211156118d55760008160009055506001016118bd565b5090565b60006118ec6118e7846121d4565b6121af565b90508281526020810184848401111561190457600080fd5b61190f848285612377565b509392505050565b600081359050611926816129e1565b92915050565b60008135905061193b816129f8565b92915050565b60008135905061195081612a0f565b92915050565b60008151905061196581612a0f565b92915050565b600082601f83011261197c57600080fd5b813561198c8482602086016118d9565b91505092915050565b6000813590506119a481612a26565b92915050565b6000602082840312156119bc57600080fd5b60006119ca84828501611917565b91505092915050565b600080604083850312156119e657600080fd5b60006119f485828601611917565b9250506020611a0585828601611917565b9150509250929050565b600080600060608486031215611a2457600080fd5b6000611a3286828701611917565b9350506020611a4386828701611917565b9250506040611a5486828701611995565b9150509250925092565b60008060008060808587031215611a7457600080fd5b6000611a8287828801611917565b9450506020611a9387828801611917565b9350506040611aa487828801611995565b925050606085013567ffffffffffffffff811115611ac157600080fd5b611acd8782880161196b565b91505092959194509250565b60008060408385031215611aec57600080fd5b6000611afa85828601611917565b9250506020611b0b8582860161192c565b9150509250929050565b60008060408385031215611b2857600080fd5b6000611b3685828601611917565b9250506020611b4785828601611995565b9150509250929050565b600060208284031215611b6357600080fd5b6000611b7184828501611941565b91505092915050565b600060208284031215611b8c57600080fd5b6000611b9a84828501611956565b91505092915050565b600060208284031215611bb557600080fd5b6000611bc384828501611995565b91505092915050565b611bd581612303565b82525050565b611be481612315565b82525050565b6000611bf582612205565b611bff818561221b565b9350611c0f818560208601612386565b611c1881612552565b840191505092915050565b6000611c2e82612210565b611c38818561222c565b9350611c48818560208601612386565b611c5181612552565b840191505092915050565b6000611c6782612210565b611c71818561223d565b9350611c81818560208601612386565b80840191505092915050565b6000611c9a60328361222c565b9150611ca582612563565b604082019050919050565b6000611cbd60258361222c565b9150611cc8826125b2565b604082019050919050565b6000611ce0601c8361222c565b9150611ceb82612601565b602082019050919050565b6000611d0360248361222c565b9150611d0e8261262a565b604082019050919050565b6000611d2660198361222c565b9150611d3182612679565b602082019050919050565b6000611d49602c8361222c565b9150611d54826126a2565b604082019050919050565b6000611d6c60388361222c565b9150611d77826126f1565b604082019050919050565b6000611d8f602a8361222c565b9150611d9a82612740565b604082019050919050565b6000611db260298361222c565b9150611dbd8261278f565b604082019050919050565b6000611dd5602e8361222c565b9150611de0826127de565b604082019050919050565b6000611df860208361222c565b9150611e038261282d565b602082019050919050565b6000611e1b60318361222c565b9150611e2682612856565b604082019050919050565b6000611e3e602c8361222c565b9150611e49826128a5565b604082019050919050565b6000611e61602f8361222c565b9150611e6c826128f4565b604082019050919050565b6000611e8460218361222c565b9150611e8f82612943565b604082019050919050565b6000611ea760318361222c565b9150611eb282612992565b604082019050919050565b611ec68161236d565b82525050565b6000611ed88285611c5c565b9150611ee48284611c5c565b91508190509392505050565b6000602082019050611f056000830184611bcc565b92915050565b6000608082019050611f206000830187611bcc565b611f2d6020830186611bcc565b611f3a6040830185611ebd565b8181036060830152611f4c8184611bea565b905095945050505050565b6000602082019050611f6c6000830184611bdb565b92915050565b60006020820190508181036000830152611f8c8184611c23565b905092915050565b60006020820190508181036000830152611fad81611c8d565b9050919050565b60006020820190508181036000830152611fcd81611cb0565b9050919050565b60006020820190508181036000830152611fed81611cd3565b9050919050565b6000602082019050818103600083015261200d81611cf6565b9050919050565b6000602082019050818103600083015261202d81611d19565b9050919050565b6000602082019050818103600083015261204d81611d3c565b9050919050565b6000602082019050818103600083015261206d81611d5f565b9050919050565b6000602082019050818103600083015261208d81611d82565b9050919050565b600060208201905081810360008301526120ad81611da5565b9050919050565b600060208201905081810360008301526120cd81611dc8565b9050919050565b600060208201905081810360008301526120ed81611deb565b9050919050565b6000602082019050818103600083015261210d81611e0e565b9050919050565b6000602082019050818103600083015261212d81611e31565b9050919050565b6000602082019050818103600083015261214d81611e54565b9050919050565b6000602082019050818103600083015261216d81611e77565b9050919050565b6000602082019050818103600083015261218d81611e9a565b9050919050565b60006020820190506121a96000830184611ebd565b92915050565b60006121b96121ca565b90506121c582826123eb565b919050565b6000604051905090565b600067ffffffffffffffff8211156121ef576121ee612523565b5b6121f882612552565b9050602081019050919050565b600081519050919050565b600081519050919050565b600082825260208201905092915050565b600082825260208201905092915050565b600081905092915050565b60006122538261236d565b915061225e8361236d565b9250827fffffffffffffffffffffffffffffffffffffffffffffffffffffffffffffffff0382111561229357612292612496565b5b828201905092915050565b60006122a98261236d565b91506122b48361236d565b9250826122c4576122c36124c5565b5b828204905092915050565b60006122da8261236d565b91506122e58361236d565b9250828210156122f8576122f7612496565b5b828203905092915050565b600061230e8261234d565b9050919050565b60008115159050919050565b60007fffffffff0000000000000000000000000000000000000000000000000000000082169050919050565b600073ffffffffffffffffffffffffffffffffffffffff82169050919050565b6000819050919050565b82818337600083830152505050565b60005b838110156123a4578082015181840152602081019050612389565b838111156123b3576000848401525b50505050565b600060028204905060018216806123d157607f821691505b602082108114156123e5576123e46124f4565b5b50919050565b6123f482612552565b810181811067ffffffffffffffff8211171561241357612412612523565b5b80604052505050565b60006124278261236d565b91507fffffffffffffffffffffffffffffffffffffffffffffffffffffffffffffffff82141561245a57612459612496565b5b600182019050919050565b60006124708261236d565b915061247b8361236d565b92508261248b5761248a6124c5565b5b828206905092915050565b7f4e487b7100000000000000000000000000000000000000000000000000000000600052601160045260246000fd5b7f4e487b7100000000000000000000000000000000000000000000000000000000600052601260045260246000fd5b7f4e487b7100000000000000000000000000000000000000000000000000000000600052602260045260246000fd5b7f4e487b7100000000000000000000000000000000000000000000000000000000600052604160045260246000fd5b6000601f19601f8301169050919050565b7f4552433732313a207472616e7366657220746f206e6f6e20455243373231526560008201527f63656976657220696d706c656d656e7465720000000000000000000000000000602082015250565b7f4552433732313a207472616e736665722066726f6d20696e636f72726563742060008201527f6f776e6572000000000000000000000000000000000000000000000000000000602082015250565b7f4552433732313a20746f6b656e20616c7265616479206d696e74656400000000600082015250565b7f4552433732313a207472616e7366657220746f20746865207a65726f2061646460008201527f7265737300000000000000000000000000000000000000000000000000000000602082015250565b7f4552433732313a20617070726f766520746f2063616c6c657200000000000000600082015250565b7f4552433732313a206f70657261746f7220717565727920666f72206e6f6e657860008201527f697374656e7420746f6b656e0000000000000000000000000000000000000000602082015250565b7f4552433732313a20617070726f76652063616c6c6572206973206e6f74206f7760008201527f6e6572206e6f7220617070726f76656420666f7220616c6c0000000000000000602082015250565b7f4552433732313a2062616c616e636520717565727920666f7220746865207a6560008201527f726f206164647265737300000000000000000000000000000000000000000000602082015250565b7f4552433732313a206f776e657220717565727920666f72206e6f6e657869737460008201527f656e7420746f6b656e0000000000000000000000000000000000000000000000602082015250565b7f45524337323155524953746f726167653a2055524920736574206f66206e6f6e60008201527f6578697374656e7420746f6b656e000000000000000000000000000000000000602082015250565b7f4552433732313a206d696e7420746f20746865207a65726f2061646472657373600082015250565b7f45524337323155524953746f726167653a2055524920717565727920666f722060008201527f6e6f6e6578697374656e7420746f6b656e000000000000000000000000000000602082015250565b7f4552433732313a20617070726f76656420717565727920666f72206e6f6e657860008201527f697374656e7420746f6b656e0000000000000000000000000000000000000000602082015250565b7f4552433732314d657461646174613a2055524920717565727920666f72206e6f60008201527f6e6578697374656e7420746f6b656e0000000000000000000000000000000000602082015250565b7f4552433732313a20617070726f76616c20746f2063757272656e74206f776e6560008201527f7200000000000000000000000000000000000000000000000000000000000000602082015250565b7f4552433732313a207472616e736665722063616c6c6572206973206e6f74206f60008201527f776e6572206e6f7220617070726f766564000000000000000000000000000000602082015250565b6129ea81612303565b81146129f557600080fd5b50565b612a0181612315565b8114612a0c57600080fd5b50565b612a1881612321565b8114612a2357600080fd5b50565b612a2f8161236d565b8114612a3a57600080fd5b5056fe697066733a2f2f516d526866416a4458443753706356396f654c714d636661596f526f387a445632754443624367484d6873447558a26469706673582212204c8aaad086dd49a98976ea08a77c197cee1045304f32ab1bd585f1bfd827cf4b64736f6c63430008010033",
  "linkReferences": {},
  "deployedLinkReferences": {}
}